:1000000073C000009FC000009DC000009BC00000A6
:100010004DC3000097C0000095C0000093C00000D1
:1000200091C000008FC000008DC000008BC0000098
:1000300089C0000087C0000085C0000083C00000A8
:1000400081C0000070C300007DC000007BC00000C4
:1000500079C0000077C0000075C0000097C30000A1
:1000600071C000006FC000006DC000006BC00000D8
:1000700069C0000067C0000065C0000063C00000E8
:1000800061C000005FC000005DC000005BC00000F8
:1000900059C0000057C0000055C0000053C0000008
:1000A00051C000004FC000004DC000004BC0000018
:1000B00049C0000047C0000045C0000043C0000028
:1000C00041C000003FC000003DC000003BC0000038
:1000D00039C0000037C0000035C0000033C0000048
:1000E00031C00000D500D90011241FBECFEFD1E2EE
:1000F000DEBFCDBF00E00CBF12E0A0E0B2E0E0E761
:10010000FAE000E00BBF02C007900D92AC33B107DC
:10011000D9F722E0ACE3B2E001C01D92A835B207E6
:10012000E1F710E0C3E7D0E000E005C02197010946
:10013000802FFE0142D4C237D10780E00807B1F713
:1001400002D085C45DCF789481B1866081B98CE39B
:1001500092E044D08CE392E065D041E060E072E050
:100160008CE392E080D08CE392E03ED088EC90E08B
:100170005DD2EC0140E064E372E08CE392E073D086
:1001800040E0BE018CE392E08AD041E068E372E097
:100190008CE392E068D02FEF83ED90E32150804014
:1001A0009040E1F700C00000E1CF8CE392E005C091
:1001B00008958CE392E011C0089523E330E0FC0140
:1001C000318320831092C50080818093C400E2ECCB
:1001D000F0E080818660808308950895E1ECF0E08E
:1001E0008081886180830895E0ECF0E0808185FF64
:1001F000FDCF8AE08093C600E0ECF0E0808185FFCF
:10020000FDCF8DE08093C60008959C01E0ECF0E006
:10021000908195FFFDCF6093C600442311F0C90182
:10022000E3CF0895CF93DF93EC0140E06BE1EDDF86
:1002300040E06BE5CE01E9DF40E062E3CE01E5DFBF
:1002400040E06AE4CE01E1DF40E06BE1CE01DDDFBA
:1002500040E06BE5CE01D9DF40E068E4CE01D5DFB8
:10026000DF91CF910895FF920F931F93CF93DF9368
:100270008C01EB01F42E6881662339F0219640E071
:10028000C801C3DF69916111FACFFF2011F0C801E5
:10029000ABDFDF91CF911F910F91FF900895FF92F7
:1002A0000F931F93CF93DF9300D000D0CDB7DEB76D
:1002B0008C01CB01F42E4AE0BE016F5F7F4F94D3D7
:1002C0004F2DBE016F5F7F4FC801CDDF26960FB661
:1002D000F894DEBF0FBECDBFDF91CF911F910F917C
:1002E000FF90089581E08093520210928500109251
:1002F00084008FEF99EF909389008093880010928B
:100300005702EFE6F0E0808182608083E1E8F0E070
:10031000808181608083109A08952F923F924F923E
:100320005F926F927F928F929F92AF92BF92CF9285
:10033000DF92EF92FF920F931F93CF93DF93CDB78E
:10034000DEB729970FB6F894DEBF0FBECDBF209160
:10035000530228872A3008F0B1C02C018090550242
:1003600090905602282D392D40E050E060E070E07A
:1003700080E090E001E0F6D2A22EB32EC42ED52E5E
:10038000E62EF72EE82F192F02E0ECD20E2F0CD319
:1003900028573E474F4F5F4F6F4F7F4F8F4F9F4FB5
:1003A000722E832E942E5983B62FA72FF82FE92F64
:1003B00002E0D8D2A22EB32EC42ED52EE62EF72ED2
:1003C000682E192F05E0CED2062DEED2A72CB82C20
:1003D000C92CD980EB2EFA2E0F2F1E2FDCD2722EB5
:1003E000832E942E5983B62FA72FF82FE92F02E0E2
:1003F000B9D2A22EB32EC42ED52EE62EF72E082F5C
:10040000192F272D382D492D59816B2F7A2F8F2F9A
:100410009E2FC1D229833A834B835C836D837E8375
:100420008F83998720915702AA24AA94BB24BA9457
:10043000C12CD12CE12CF12C00E010E030E040E0A8
:1004400050E060E070E080E090E0DDD11201A22C8D
:10045000B32CA1D2A22EB32EC42ED52EE62EF72E6B
:10046000082F192F29813A814B815C816D817E8112
:100470008F819985C8D1A8858A2E912CF401EE0F21
:10048000FF1FDF01A25CBD4F4D01A12C0F2EF4E92F
:10049000BF2EF02D0F2EF5E3CF2EF02D0F2EF7E708
:1004A000DF2EF02DE12CF12C00E010E0FFD1F40163
:1004B00020833183F885FF5FF0935302109252023C
:1004C00029960FB6F894DEBF0FBECDBFDF91CF9156
:1004D0001F910F91FF90EF90DF90CF90BF90AF9062
:1004E0009F908F907F906F905F904F903F902F9054
:1004F0000895CF9342E552E0C1E070E005C0E417F3
:10050000F50729F4611112C0EEE3F2E06C2F81913E
:100510009191208131812817390788F7DF011297DF
:100520002D933C9391838083672FE9CFCF910895DA
:100530004F925F926F927F928F929F92AF92BF92F3
:10054000CF92DF92EF92FF92EEE3F2E0808491840B
:1005500082859385880E991E96948794A12CB12C40
:10056000AFE5B0E0A501940144D10F2EF4E64F2E83
:10057000512C612C712CF02DA301920118D169012D
:100580007A01A9E6B0E0A501940133D1A30192015B
:100590000ED149015A01EEE3F2E080E090E0419192
:1005A000519160E070E04C155D056E057F0540F0EF
:1005B00084169506A606B70620F421E0280F05C08C
:1005C000982F8F5F8A3059F729E09217A0F4892F6E
:1005D000C12CD12C7601E82FF0E0EE0FFF1FE25C7A
:1005E000FD4F40815181C40ED51EE11CF11C8F5F6F
:1005F0002813F1CF03C0C12CD12C760130E0291B88
:100600003109032E000C440B550BC701B601CFD0A6
:10061000C901FF90EF90DF90CF90BF90AF909F9077
:100620008F907F906F905F904F9008951092570237
:1006300088EC90E0909356028093550281E080937D
:10064000540210925302109252021098089A8AB1E2
:10065000876F8AB9E0E8F0E080818C7F8083E1E8F1
:10066000F0E08081877E80838081887F8083EFE6D1
:10067000F0E0808181608083E9E6F0E080818F771F
:100680008083808180648083109254028091530221
:100690008A3030F427DE809152028111FECFF6CFEE
:1006A00028DF46DF21E02093540208951F920F9225
:1006B0000FB60F9211240BB60F922F933F934F93C7
:1006C0005F936F937F938F939F93AF93BF93EF93BA
:1006D000FF9392B184E0892782B94B9B06C0E1E881
:1006E000F0E08081816080830BC0E1E8F0E08081F0
:1006F000887F8083EB9880918400909185000DDE47
:10070000FF91EF91BF91AF919F918F917F916F91E9
:100710005F914F913F912F910F900BBE0F900FBEA5
:100720000F901F9018951F920F920FB60F921124E1
:100730000BB60F928F939F93EF93FF9392B182E04A
:10074000892782B9809157028F5F8093570288234F
:1007500071F0E1E8F0E08081887F80831098EFE617
:10076000F0E080818D7F808310925702EB9A109287
:10077000850010928400FF91EF919F918F910F90CF
:100780000BBE0F900FBE0F901F9018951F920F92E7
:100790000FB60F9211248F93809157028F5F809331
:1007A00057028F910F900FBE0F901F901895A1E2E6
:1007B0001A2EAA1BBB1BFD010DC0AA1FBB1FEE1FDB
:1007C000FF1FA217B307E407F50720F0A21BB30B26
:1007D000E40BF50B661F771F881F991F1A9469F7A2
:1007E00060957095809590959B01AC01BD01CF01FE
:1007F0000895EBD0A59F900DB49F900DA49F800D00
:10080000911D11240895DF93CF931F930F939A9D09
:10081000F02D219FF00D8B9DF00D8A9DE02DF10DA7
:10082000039FF00D029FE00DF11D4E9DE00DF11DA7
:100830005E9DF00D4F9DF00D7F936F93BF92AF9231
:100840005F934F93D501C1D08B01AC01D701BDD0CF
:10085000EB01E80FF91FD6011FD02F913F91D60170
:10086000B4D0C60FD71FE81FF91FAF91BF9114D0A6
:100870002F913F91AAD0C60FD71FE81FF91FD601AD
:10088000A4D0E60FF71F9801BE01CF0111240F91EC
:100890001F91CF91DF91089598D0460F571FC81F21
:1008A000D91F08F431960895689401C0E8948F9296
:1008B0009F92CF93DF9305D0DF91CF919F908F9040
:1008C000089588249924F401E401B0E49F93AA27B1
:1008D0009A158B049C04ED05FE05CF05D007A107F2
:1008E00098F4AD2FDC2FCF2FFE2FE92D982C892ED9
:1008F000982F872F762F652F542F432F322F2227A3
:10090000B85031F7BF9127C01B2EBF91BB27220FD4
:10091000331F441F551F661F771F881F991F881C90
:10092000991CEE1FFF1FCC1FDD1FAA1FBB1F8A14BF
:100930009B04EC05FD05CE05DF05A007B10748F0D7
:100940008A189B08EC09FD09CE09DF09A00BB10B41
:1009500021601A94E1F62EF49401AF01BE01CD019D
:10096000000C08950F93083090F0982F872F762F62
:10097000652F542F432F322F22270850F4CF220FF8
:10098000331F441F551F661F771F881F991F0A9525
:10099000B2F70F9108952A0D3B1D4C1D5D1D6E1D74
:1009A0007F1D801F911F08952A193B094C095D097D
:1009B0006E097F09800B910B0895EE0FFF1F881FB2
:1009C0008BBF0790F691E02D1994A29FB001B39FC1
:1009D000C001A39F700D811D1124911DB29F700D48
:1009E000811D1124911D0895BB274A3031F49923AC
:1009F00022F4BDE2909581959F4F01C0BB27FB017A
:100A00005527AA27880F991FAA1FA41710F0A41B07
:100A100083955051B9F7A05DAA3308F0A95DA19361
:100A2000009779F7B111B1931192CB0100C0DC01AD
:100A3000FC01672F71917723E1F7329704C07C9115
:100A40006D9370836291AE17BF07C8F3089510E0ED
:100A5000C3E7D0E000E005C0802FFE01AEDF2196A5
:100A6000011DC437D10780E00807B1F7F894FFCF24
:100A7000556C747261736F6E69632064697374611D
:100A80006E6365206D656173737572656D656E74F7
:100A9000202D2D2D2D2D2D2D2D2D2D2D2D2D2D2D93
:0C0AA0002D2D0000643D00006D6D000075
:00000001FF
